{
  "contractName": "OFINToken",
  "abi": [
    {
      "inputs": [],
      "stateMutability": "nonpayable",
      "type": "constructor"
    },
    {
      "anonymous": false,
      "inputs": [
        {
          "indexed": true,
          "internalType": "address",
          "name": "owner",
          "type": "address"
        },
        {
          "indexed": true,
          "internalType": "address",
          "name": "spender",
          "type": "address"
        },
        {
          "indexed": false,
          "internalType": "uint256",
          "name": "value",
          "type": "uint256"
        }
      ],
      "name": "Approval",
      "type": "event"
    },
    {
      "anonymous": false,
      "inputs": [
        {
          "indexed": false,
          "internalType": "address",
          "name": "account",
          "type": "address"
        }
      ],
      "name": "Paused",
      "type": "event"
    },
    {
      "anonymous": false,
      "inputs": [
        {
          "indexed": true,
          "internalType": "bytes32",
          "name": "role",
          "type": "bytes32"
        },
        {
          "indexed": true,
          "internalType": "bytes32",
          "name": "previousAdminRole",
          "type": "bytes32"
        },
        {
          "indexed": true,
          "internalType": "bytes32",
          "name": "newAdminRole",
          "type": "bytes32"
        }
      ],
      "name": "RoleAdminChanged",
      "type": "event"
    },
    {
      "anonymous": false,
      "inputs": [
        {
          "indexed": true,
          "internalType": "bytes32",
          "name": "role",
          "type": "bytes32"
        },
        {
          "indexed": true,
          "internalType": "address",
          "name": "account",
          "type": "address"
        },
        {
          "indexed": true,
          "internalType": "address",
          "name": "sender",
          "type": "address"
        }
      ],
      "name": "RoleGranted",
      "type": "event"
    },
    {
      "anonymous": false,
      "inputs": [
        {
          "indexed": true,
          "internalType": "bytes32",
          "name": "role",
          "type": "bytes32"
        },
        {
          "indexed": true,
          "internalType": "address",
          "name": "account",
          "type": "address"
        },
        {
          "indexed": true,
          "internalType": "address",
          "name": "sender",
          "type": "address"
        }
      ],
      "name": "RoleRevoked",
      "type": "event"
    },
    {
      "anonymous": false,
      "inputs": [
        {
          "indexed": true,
          "internalType": "address",
          "name": "from",
          "type": "address"
        },
        {
          "indexed": true,
          "internalType": "address",
          "name": "to",
          "type": "address"
        },
        {
          "indexed": false,
          "internalType": "uint256",
          "name": "value",
          "type": "uint256"
        }
      ],
      "name": "Transfer",
      "type": "event"
    },
    {
      "anonymous": false,
      "inputs": [
        {
          "indexed": false,
          "internalType": "address",
          "name": "account",
          "type": "address"
        }
      ],
      "name": "Unpaused",
      "type": "event"
    },
    {
      "inputs": [],
      "name": "BURNER_ROLE",
      "outputs": [
        {
          "internalType": "bytes32",
          "name": "",
          "type": "bytes32"
        }
      ],
      "stateMutability": "view",
      "type": "function",
      "constant": true
    },
    {
      "inputs": [],
      "name": "DEFAULT_ADMIN_ROLE",
      "outputs": [
        {
          "internalType": "bytes32",
          "name": "",
          "type": "bytes32"
        }
      ],
      "stateMutability": "view",
      "type": "function",
      "constant": true
    },
    {
      "inputs": [],
      "name": "MINTER_ROLE",
      "outputs": [
        {
          "internalType": "bytes32",
          "name": "",
          "type": "bytes32"
        }
      ],
      "stateMutability": "view",
      "type": "function",
      "constant": true
    },
    {
      "inputs": [],
      "name": "PAUSER_ROLE",
      "outputs": [
        {
          "internalType": "bytes32",
          "name": "",
          "type": "bytes32"
        }
      ],
      "stateMutability": "view",
      "type": "function",
      "constant": true
    },
    {
      "inputs": [
        {
          "internalType": "address",
          "name": "owner",
          "type": "address"
        },
        {
          "internalType": "address",
          "name": "spender",
          "type": "address"
        }
      ],
      "name": "allowance",
      "outputs": [
        {
          "internalType": "uint256",
          "name": "",
          "type": "uint256"
        }
      ],
      "stateMutability": "view",
      "type": "function",
      "constant": true
    },
    {
      "inputs": [
        {
          "internalType": "address",
          "name": "spender",
          "type": "address"
        },
        {
          "internalType": "uint256",
          "name": "amount",
          "type": "uint256"
        }
      ],
      "name": "approve",
      "outputs": [
        {
          "internalType": "bool",
          "name": "",
          "type": "bool"
        }
      ],
      "stateMutability": "nonpayable",
      "type": "function"
    },
    {
      "inputs": [
        {
          "internalType": "address",
          "name": "account",
          "type": "address"
        }
      ],
      "name": "balanceOf",
      "outputs": [
        {
          "internalType": "uint256",
          "name": "",
          "type": "uint256"
        }
      ],
      "stateMutability": "view",
      "type": "function",
      "constant": true
    },
    {
      "inputs": [
        {
          "internalType": "uint256",
          "name": "amount",
          "type": "uint256"
        }
      ],
      "name": "burn",
      "outputs": [],
      "stateMutability": "nonpayable",
      "type": "function"
    },
    {
      "inputs": [],
      "name": "cap",
      "outputs": [
        {
          "internalType": "uint256",
          "name": "",
          "type": "uint256"
        }
      ],
      "stateMutability": "view",
      "type": "function",
      "constant": true
    },
    {
      "inputs": [],
      "name": "decimals",
      "outputs": [
        {
          "internalType": "uint8",
          "name": "",
          "type": "uint8"
        }
      ],
      "stateMutability": "view",
      "type": "function",
      "constant": true
    },
    {
      "inputs": [
        {
          "internalType": "address",
          "name": "spender",
          "type": "address"
        },
        {
          "internalType": "uint256",
          "name": "subtractedValue",
          "type": "uint256"
        }
      ],
      "name": "decreaseAllowance",
      "outputs": [
        {
          "internalType": "bool",
          "name": "",
          "type": "bool"
        }
      ],
      "stateMutability": "nonpayable",
      "type": "function"
    },
    {
      "inputs": [
        {
          "internalType": "bytes32",
          "name": "role",
          "type": "bytes32"
        }
      ],
      "name": "getRoleAdmin",
      "outputs": [
        {
          "internalType": "bytes32",
          "name": "",
          "type": "bytes32"
        }
      ],
      "stateMutability": "view",
      "type": "function",
      "constant": true
    },
    {
      "inputs": [
        {
          "internalType": "bytes32",
          "name": "role",
          "type": "bytes32"
        },
        {
          "internalType": "uint256",
          "name": "index",
          "type": "uint256"
        }
      ],
      "name": "getRoleMember",
      "outputs": [
        {
          "internalType": "address",
          "name": "",
          "type": "address"
        }
      ],
      "stateMutability": "view",
      "type": "function",
      "constant": true
    },
    {
      "inputs": [
        {
          "internalType": "bytes32",
          "name": "role",
          "type": "bytes32"
        }
      ],
      "name": "getRoleMemberCount",
      "outputs": [
        {
          "internalType": "uint256",
          "name": "",
          "type": "uint256"
        }
      ],
      "stateMutability": "view",
      "type": "function",
      "constant": true
    },
    {
      "inputs": [
        {
          "internalType": "bytes32",
          "name": "role",
          "type": "bytes32"
        },
        {
          "internalType": "address",
          "name": "account",
          "type": "address"
        }
      ],
      "name": "grantRole",
      "outputs": [],
      "stateMutability": "nonpayable",
      "type": "function"
    },
    {
      "inputs": [
        {
          "internalType": "bytes32",
          "name": "role",
          "type": "bytes32"
        },
        {
          "internalType": "address",
          "name": "account",
          "type": "address"
        }
      ],
      "name": "hasRole",
      "outputs": [
        {
          "internalType": "bool",
          "name": "",
          "type": "bool"
        }
      ],
      "stateMutability": "view",
      "type": "function",
      "constant": true
    },
    {
      "inputs": [
        {
          "internalType": "address",
          "name": "spender",
          "type": "address"
        },
        {
          "internalType": "uint256",
          "name": "addedValue",
          "type": "uint256"
        }
      ],
      "name": "increaseAllowance",
      "outputs": [
        {
          "internalType": "bool",
          "name": "",
          "type": "bool"
        }
      ],
      "stateMutability": "nonpayable",
      "type": "function"
    },
    {
      "inputs": [],
      "name": "name",
      "outputs": [
        {
          "internalType": "string",
          "name": "",
          "type": "string"
        }
      ],
      "stateMutability": "view",
      "type": "function",
      "constant": true
    },
    {
      "inputs": [],
      "name": "paused",
      "outputs": [
        {
          "internalType": "bool",
          "name": "",
          "type": "bool"
        }
      ],
      "stateMutability": "view",
      "type": "function",
      "constant": true
    },
    {
      "inputs": [
        {
          "internalType": "bytes32",
          "name": "role",
          "type": "bytes32"
        },
        {
          "internalType": "address",
          "name": "account",
          "type": "address"
        }
      ],
      "name": "renounceRole",
      "outputs": [],
      "stateMutability": "nonpayable",
      "type": "function"
    },
    {
      "inputs": [
        {
          "internalType": "bytes32",
          "name": "role",
          "type": "bytes32"
        },
        {
          "internalType": "address",
          "name": "account",
          "type": "address"
        }
      ],
      "name": "revokeRole",
      "outputs": [],
      "stateMutability": "nonpayable",
      "type": "function"
    },
    {
      "inputs": [],
      "name": "symbol",
      "outputs": [
        {
          "internalType": "string",
          "name": "",
          "type": "string"
        }
      ],
      "stateMutability": "view",
      "type": "function",
      "constant": true
    },
    {
      "inputs": [],
      "name": "totalSupply",
      "outputs": [
        {
          "internalType": "uint256",
          "name": "",
          "type": "uint256"
        }
      ],
      "stateMutability": "view",
      "type": "function",
      "constant": true
    },
    {
      "inputs": [
        {
          "internalType": "address",
          "name": "recipient",
          "type": "address"
        },
        {
          "internalType": "uint256",
          "name": "amount",
          "type": "uint256"
        }
      ],
      "name": "transfer",
      "outputs": [
        {
          "internalType": "bool",
          "name": "",
          "type": "bool"
        }
      ],
      "stateMutability": "nonpayable",
      "type": "function"
    },
    {
      "inputs": [
        {
          "internalType": "address",
          "name": "sender",
          "type": "address"
        },
        {
          "internalType": "address",
          "name": "recipient",
          "type": "address"
        },
        {
          "internalType": "uint256",
          "name": "amount",
          "type": "uint256"
        }
      ],
      "name": "transferFrom",
      "outputs": [
        {
          "internalType": "bool",
          "name": "",
          "type": "bool"
        }
      ],
      "stateMutability": "nonpayable",
      "type": "function"
    },
    {
      "inputs": [
        {
          "internalType": "address",
          "name": "to",
          "type": "address"
        },
        {
          "internalType": "uint256",
          "name": "amount",
          "type": "uint256"
        }
      ],
      "name": "mint",
      "outputs": [],
      "stateMutability": "nonpayable",
      "type": "function"
    },
    {
      "inputs": [],
      "name": "pause",
      "outputs": [],
      "stateMutability": "nonpayable",
      "type": "function"
    },
    {
      "inputs": [],
      "name": "unpause",
      "outputs": [],
      "stateMutability": "nonpayable",
      "type": "function"
    },
    {
      "inputs": [
        {
          "internalType": "address",
          "name": "account",
          "type": "address"
        },
        {
          "internalType": "uint256",
          "name": "amount",
          "type": "uint256"
        }
      ],
      "name": "burnFrom",
      "outputs": [],
      "stateMutability": "nonpayable",
      "type": "function"
    },
    {
      "inputs": [
        {
          "internalType": "address",
          "name": "account",
          "type": "address"
        }
      ],
      "name": "grantMinterRole",
      "outputs": [],
      "stateMutability": "nonpayable",
      "type": "function"
    },
    {
      "inputs": [
        {
          "internalType": "address",
          "name": "account",
          "type": "address"
        }
      ],
      "name": "grantBurnerRole",
      "outputs": [],
      "stateMutability": "nonpayable",
      "type": "function"
    },
    {
      "inputs": [
        {
          "internalType": "address",
          "name": "account",
          "type": "address"
        }
      ],
      "name": "grantPauserRole",
      "outputs": [],
      "stateMutability": "nonpayable",
      "type": "function"
    }
  ],
  "bytecode": "0x60806040523480156200001157600080fd5b50604080518082018252600a81526927a324a7102a27a5a2a760b11b60208083019182528351808501909452600284526127a760f11b9084015281516a066f0222d28f572924000093916200006a9160039190620002af565b50805162000080906004906020840190620002af565b50506005805460ff191660121790555080620000e3576040805162461bcd60e51b815260206004820152601560248201527f45524332304361707065643a2063617020697320300000000000000000000000604482015290519081900360640190fd5b6006556007805460ff191690556200010660006200010062000199565b6200019d565b620001357f9f2df0fed2c77648de5860a4cc508cd0818c85b8b8a1ab4ceeef8d981c8956a66200010062000199565b620001647f3c11d16cbaffd01df69ce1c404f6340ee057498f5f00246190ea54220576a8486200010062000199565b620001937f65d7a28e3265b37a6474929f336521b332c1681b933f6cb9f3376673440d862a6200010062000199565b6200034b565b3390565b620001a98282620001ad565b5050565b6000828152600860209081526040909120620001d491839062000e3a62000228821b17901c565b15620001a957620001e462000199565b6001600160a01b0316816001600160a01b0316837f2f8788117e7eff1d82e926ec794901d17c78024a50270940304540a733656f0d60405160405180910390a45050565b60006200023f836001600160a01b03841662000248565b90505b92915050565b600062000256838362000297565b6200028e5750815460018181018455600084815260208082209093018490558454848252828601909352604090209190915562000242565b50600062000242565b60009081526001919091016020526040902054151590565b828054600181600116156101000203166002900490600052602060002090601f016020900481019282601f10620002f257805160ff191683800117855562000322565b8280016001018555821562000322579182015b828111156200032257825182559160200191906001019062000305565b506200033092915062000334565b5090565b5b8082111562000330576000815560010162000335565b611ce0806200035b6000396000f3fe608060405234801561001057600080fd5b50600436106101f05760003560e01c80636c11c21c1161010f578063a457c2d7116100a2578063d547741f11610071578063d547741f146105ca578063d98d23b1146105f6578063dd62ed3e1461061c578063e63ab1e91461064a576101f0565b8063a457c2d71461054d578063a9059cbb14610579578063ca15c873146105a5578063d5391393146105c2576101f0565b80639010d07c116100de5780639010d07c146104d257806391d148541461051157806395d89b411461053d578063a217fddf14610545576101f0565b80636c11c21c1461045257806370a082311461047857806379cc67901461049e5780638456cb59146104ca576101f0565b8063355274ea116101875780633f4ba83a116101565780633f4ba83a146103f957806340c10f191461040157806342966c681461042d5780635c975abb1461044a576101f0565b8063355274ea1461037357806336568abe1461037b57806339509351146103a75780633dd1eb61146103d3576101f0565b8063248a9ca3116101c3578063248a9ca314610302578063282c51f31461031f5780632f2ff15d14610327578063313ce56714610355576101f0565b806306fdde03146101f5578063095ea7b31461027257806318160ddd146102b257806323b872dd146102cc575b600080fd5b6101fd610652565b6040805160208082528351818301528351919283929083019185019080838360005b8381101561023757818101518382015260200161021f565b50505050905090810190601f1680156102645780820380516001836020036101000a031916815260200191505b509250505060405180910390f35b61029e6004803603604081101561028857600080fd5b506001600160a01b0381351690602001356106e8565b604080519115158252519081900360200190f35b6102ba610706565b60408051918252519081900360200190f35b61029e600480360360608110156102e257600080fd5b506001600160a01b0381358116916020810135909116906040013561070c565b6102ba6004803603602081101561031857600080fd5b5035610793565b6102ba6107a8565b6103536004803603604081101561033d57600080fd5b50803590602001356001600160a01b03166107cc565b005b61035d610838565b6040805160ff9092168252519081900360200190f35b6102ba610841565b6103536004803603604081101561039157600080fd5b50803590602001356001600160a01b0316610847565b61029e600480360360408110156103bd57600080fd5b506001600160a01b0381351690602001356108a8565b610353600480360360208110156103e957600080fd5b50356001600160a01b03166108f6565b610353610959565b6103536004803603604081101561041757600080fd5b506001600160a01b0381351690602001356109b8565b6103536004803603602081101561044357600080fd5b5035610a8d565b61029e610a9e565b6103536004803603602081101561046857600080fd5b50356001600160a01b0316610aa7565b6102ba6004803603602081101561048e57600080fd5b50356001600160a01b0316610b07565b610353600480360360408110156104b457600080fd5b506001600160a01b038135169060200135610b22565b610353610b93565b6104f5600480360360408110156104e857600080fd5b5080359060200135610bf0565b604080516001600160a01b039092168252519081900360200190f35b61029e6004803603604081101561052757600080fd5b50803590602001356001600160a01b0316610c0f565b6101fd610c27565b6102ba610c88565b61029e6004803603604081101561056357600080fd5b506001600160a01b038135169060200135610c8d565b61029e6004803603604081101561058f57600080fd5b506001600160a01b038135169060200135610cf5565b6102ba600480360360208110156105bb57600080fd5b5035610d09565b6102ba610d20565b610353600480360360408110156105e057600080fd5b50803590602001356001600160a01b0316610d32565b6103536004803603602081101561060c57600080fd5b50356001600160a01b0316610d8b565b6102ba6004803603604081101561063257600080fd5b506001600160a01b0381358116916020013516610dfd565b6102ba610e28565b60038054604080516020601f60026000196101006001881615020190951694909404938401819004810282018101909252828152606093909290918301828280156106de5780601f106106b3576101008083540402835291602001916106de565b820191906000526020600020905b8154815290600101906020018083116106c157829003601f168201915b5050505050905090565b60006106fc6106f5610e4f565b8484610e53565b5060015b92915050565b60025490565b6000610719848484610f3f565b61078984610725610e4f565b61078485604051806060016040528060288152602001611a8f602891396001600160a01b038a16600090815260016020526040812090610763610e4f565b6001600160a01b03168152602081019190915260400160002054919061109a565b610e53565b5060019392505050565b60009081526008602052604090206002015490565b7f3c11d16cbaffd01df69ce1c404f6340ee057498f5f00246190ea54220576a84881565b6000828152600860205260409020600201546107ef906107ea610e4f565b610c0f565b61082a5760405162461bcd60e51b815260040180806020018281038252602f81526020018061196b602f913960400191505060405180910390fd5b6108348282611131565b5050565b60055460ff1690565b60065490565b61084f610e4f565b6001600160a01b0316816001600160a01b03161461089e5760405162461bcd60e51b815260040180806020018281038252602f815260200180611c29602f913960400191505060405180910390fd5b610834828261119a565b60006106fc6108b5610e4f565b8461078485600160006108c6610e4f565b6001600160a01b03908116825260208083019390935260409182016000908120918c168152925290205490611203565b61090360006107ea610e4f565b61093e5760405162461bcd60e51b815260040180806020018281038252602b815260200180611a64602b913960400191505060405180910390fd5b610956600080516020611b23833981519152826107cc565b50565b610973600080516020611ab78339815191526107ea610e4f565b6109ae5760405162461bcd60e51b815260040180806020018281038252602b815260200180611bad602b913960400191505060405180910390fd5b6109b661125d565b565b6109d2600080516020611b238339815191526107ea610e4f565b610a0d5760405162461bcd60e51b8152600401808060200182810382526028815260200180611afb6028913960400191505060405180910390fd5b610a15610e4f565b6001600160a01b0316826001600160a01b03161415610a8357610a48600080516020611b238339815191526107ea610e4f565b610a835760405162461bcd60e51b81526004018080602001828103825260308152602001806119bc6030913960400191505060405180910390fd5b61083482826112fb565b610956610a98610e4f565b826113eb565b60075460ff1690565b610ab460006107ea610e4f565b610aef5760405162461bcd60e51b815260040180806020018281038252602b815260200180611a64602b913960400191505060405180910390fd5b610956600080516020611ab7833981519152826107cc565b6001600160a01b031660009081526020819052604090205490565b610b4e7f3c11d16cbaffd01df69ce1c404f6340ee057498f5f00246190ea54220576a8486107ea610e4f565b610b895760405162461bcd60e51b815260040180806020018281038252602c815260200180611bd8602c913960400191505060405180910390fd5b61083482826114e7565b610bad600080516020611ab78339815191526107ea610e4f565b610be85760405162461bcd60e51b8152600401808060200182810382526029815260200180611c826029913960400191505060405180910390fd5b6109b6611541565b6000828152600860205260408120610c0890836115c2565b9392505050565b6000828152600860205260408120610c0890836115ce565b60048054604080516020601f60026000196101006001881615020190951694909404938401819004810282018101909252828152606093909290918301828280156106de5780601f106106b3576101008083540402835291602001916106de565b600081565b60006106fc610c9a610e4f565b8461078485604051806060016040528060258152602001611c046025913960016000610cc4610e4f565b6001600160a01b03908116825260208083019390935260409182016000908120918d1681529252902054919061109a565b60006106fc610d02610e4f565b8484610f3f565b6000818152600860205260408120610700906115e3565b600080516020611b2383398151915281565b600082815260086020526040902060020154610d50906107ea610e4f565b61089e5760405162461bcd60e51b8152600401808060200182810382526030815260200180611a346030913960400191505060405180910390fd5b610d9860006107ea610e4f565b610dd35760405162461bcd60e51b815260040180806020018281038252602b815260200180611a64602b913960400191505060405180910390fd5b6109567f3c11d16cbaffd01df69ce1c404f6340ee057498f5f00246190ea54220576a848826107cc565b6001600160a01b03918216600090815260016020908152604080832093909416825291909152205490565b600080516020611ab783398151915281565b6000610c08836001600160a01b0384166115ee565b3390565b6001600160a01b038316610e985760405162461bcd60e51b8152600401808060200182810382526024815260200180611b896024913960400191505060405180910390fd5b6001600160a01b038216610edd5760405162461bcd60e51b81526004018080602001828103825260228152602001806119ec6022913960400191505060405180910390fd5b6001600160a01b03808416600081815260016020908152604080832094871680845294825291829020859055815185815291517f8c5be1e5ebec7d5bd14f71427d1e84f3dd0314c0f7b2291e5b200ac8c7c3b9259281900390910190a3505050565b6001600160a01b038316610f845760405162461bcd60e51b8152600401808060200182810382526025815260200180611b646025913960400191505060405180910390fd5b6001600160a01b038216610fc95760405162461bcd60e51b81526004018080602001828103825260238152602001806119486023913960400191505060405180910390fd5b610fd4838383611638565b61101181604051806060016040528060268152602001611a0e602691396001600160a01b038616600090815260208190526040902054919061109a565b6001600160a01b0380851660009081526020819052604080822093909355908416815220546110409082611203565b6001600160a01b038084166000818152602081815260409182902094909455805185815290519193928716927fddf252ad1be2c89b69c2b068fc378daa952ba7f163c4a11628f55a4df523b3ef92918290030190a3505050565b600081848411156111295760405162461bcd60e51b81526004018080602001828103825283818151815260200191508051906020019080838360005b838110156110ee5781810151838201526020016110d6565b50505050905090810190601f16801561111b5780820380516001836020036101000a031916815260200191505b509250505060405180910390fd5b505050900390565b60008281526008602052604090206111499082610e3a565b1561083457611156610e4f565b6001600160a01b0316816001600160a01b0316837f2f8788117e7eff1d82e926ec794901d17c78024a50270940304540a733656f0d60405160405180910390a45050565b60008281526008602052604090206111b290826116b8565b15610834576111bf610e4f565b6001600160a01b0316816001600160a01b0316837ff6391f5c32d9c69d2a47ea670b442974b53935d1edc7fd64eb21e047a839171b60405160405180910390a45050565b600082820183811015610c08576040805162461bcd60e51b815260206004820152601b60248201527f536166654d6174683a206164646974696f6e206f766572666c6f770000000000604482015290519081900360640190fd5b60075460ff166112ab576040805162461bcd60e51b815260206004820152601460248201527314185d5cd8589b194e881b9bdd081c185d5cd95960621b604482015290519081900360640190fd5b6007805460ff191690557f5db9ee0a495bf2e6ff9c91a7834c1ba4fdd244a5e8aa4e537bd38aeae4b073aa6112de610e4f565b604080516001600160a01b039092168252519081900360200190a1565b6001600160a01b038216611356576040805162461bcd60e51b815260206004820152601f60248201527f45524332303a206d696e7420746f20746865207a65726f206164647265737300604482015290519081900360640190fd5b61136260008383611638565b60025461136f9082611203565b6002556001600160a01b0382166000908152602081905260409020546113959082611203565b6001600160a01b0383166000818152602081815260408083209490945583518581529351929391927fddf252ad1be2c89b69c2b068fc378daa952ba7f163c4a11628f55a4df523b3ef9281900390910190a35050565b6001600160a01b0382166114305760405162461bcd60e51b8152600401808060200182810382526021815260200180611b436021913960400191505060405180910390fd5b61143c82600083611638565b6114798160405180606001604052806022815260200161199a602291396001600160a01b038516600090815260208190526040902054919061109a565b6001600160a01b03831660009081526020819052604090205560025461149f90826116cd565b6002556040805182815290516000916001600160a01b038516917fddf252ad1be2c89b69c2b068fc378daa952ba7f163c4a11628f55a4df523b3ef9181900360200190a35050565b600061151e82604051806060016040528060248152602001611ad76024913961151786611512610e4f565b610dfd565b919061109a565b90506115328361152c610e4f565b83610e53565b61153c83836113eb565b505050565b60075460ff161561158c576040805162461bcd60e51b815260206004820152601060248201526f14185d5cd8589b194e881c185d5cd95960821b604482015290519081900360640190fd5b6007805460ff191660011790557f62e78cea01bee320cd4e420270b5ea74000d11b0c9f74754ebdbfc544b05a2586112de610e4f565b6000610c08838361170f565b6000610c08836001600160a01b038416611773565b60006107008261178b565b60006115fa8383611773565b61163057508154600181810184556000848152602080822090930184905584548482528286019093526040902091909155610700565b506000610700565b6001600160a01b038316158061165557506001600160a01b038216155b6116ad57611661610a9e565b1561169d5760405162461bcd60e51b815260040180806020018281038252602a815260200180611c58602a913960400191505060405180910390fd5b6116a883838361178f565b61153c565b61153c8383836117de565b6000610c08836001600160a01b03841661185f565b6000610c0883836040518060400160405280601e81526020017f536166654d6174683a207375627472616374696f6e206f766572666c6f77000081525061109a565b815460009082106117515760405162461bcd60e51b81526004018080602001828103825260228152602001806119266022913960400191505060405180910390fd5b82600001828154811061176057fe5b9060005260206000200154905092915050565b60009081526001919091016020526040902054151590565b5490565b61179a8383836117de565b6117a2610a9e565b1561153c5760405162461bcd60e51b815260040180806020018281038252602a815260200180611c58602a913960400191505060405180910390fd5b6117e983838361153c565b6001600160a01b03831661153c5760065461180c82611806610706565b90611203565b111561153c576040805162461bcd60e51b815260206004820152601960248201527f45524332304361707065643a2063617020657863656564656400000000000000604482015290519081900360640190fd5b6000818152600183016020526040812054801561191b578354600019808301919081019060009087908390811061189257fe5b90600052602060002001549050808760000184815481106118af57fe5b6000918252602080832090910192909255828152600189810190925260409020908401905586548790806118df57fe5b60019003818190600052602060002001600090559055866001016000878152602001908152602001600020600090556001945050505050610700565b600091505061070056fe456e756d657261626c655365743a20696e646578206f7574206f6620626f756e647345524332303a207472616e7366657220746f20746865207a65726f2061646472657373416363657373436f6e74726f6c3a2073656e646572206d75737420626520616e2061646d696e20746f206772616e7445524332303a206275726e20616d6f756e7420657863656564732062616c616e63654f46494e546f6b656e3a206d7573742068617665206d696e74657220726f6c6520746f206d696e7420746f2073656c6645524332303a20617070726f766520746f20746865207a65726f206164647265737345524332303a207472616e7366657220616d6f756e7420657863656564732062616c616e6365416363657373436f6e74726f6c3a2073656e646572206d75737420626520616e2061646d696e20746f207265766f6b654f46494e546f6b656e3a2073656e646572206d75737420626520616e2061646d696e20746f206772616e7445524332303a207472616e7366657220616d6f756e74206578636565647320616c6c6f77616e636565d7a28e3265b37a6474929f336521b332c1681b933f6cb9f3376673440d862a45524332303a206275726e20616d6f756e74206578636565647320616c6c6f77616e63654f46494e546f6b656e3a206d7573742068617665206d696e74657220726f6c6520746f206d696e749f2df0fed2c77648de5860a4cc508cd0818c85b8b8a1ab4ceeef8d981c8956a645524332303a206275726e2066726f6d20746865207a65726f206164647265737345524332303a207472616e736665722066726f6d20746865207a65726f206164647265737345524332303a20617070726f76652066726f6d20746865207a65726f20616464726573734f46494e546f6b656e3a206d75737420686176652070617573657220726f6c6520746f20756e70617573654f46494e546f6b656e3a206d7573742068617665206275726e657220726f6c6520746f206275726e46726f6d45524332303a2064656372656173656420616c6c6f77616e63652062656c6f77207a65726f416363657373436f6e74726f6c3a2063616e206f6e6c792072656e6f756e636520726f6c657320666f722073656c6645524332305061757361626c653a20746f6b656e207472616e73666572207768696c65207061757365644f46494e546f6b656e3a206d75737420686176652070617573657220726f6c6520746f207061757365a26469706673582212206c37699df8b9dd164907c6c158e960e138db06102629735e692727bac439c0b264736f6c634300060c0033",
  "immutableReferences": {},
  "source": "// SPDX-License-Identifier: Copyright@ofin.io\n/**\n * \n * \n * \n * URL: https://ofin.io/\n * Symbol: ON\n * \n */\n \npragma solidity 0.6.12;\n\nimport \"@openzeppelin/contracts/token/ERC20/ERC20.sol\";\nimport \"@openzeppelin/contracts/token/ERC20/ERC20Capped.sol\";\nimport \"@openzeppelin/contracts/token/ERC20/ERC20Pausable.sol\";\nimport \"@openzeppelin/contracts/token/ERC20/ERC20Burnable.sol\";\nimport \"@openzeppelin/contracts/math/SafeMath.sol\";\nimport \"@openzeppelin/contracts/access/AccessControl.sol\";\n\n\n/**\n * @dev {ERC20} token, including:\n *\n *  - a pauser role that allows to stop all token transfers, minting and burning\n *  - a minter role that allows for token minting (creation)\n *  - ability for holders to burn (destroy) their tokens\n *\n * This contract uses {AccessControl} to lock permissioned functions using the\n * different roles - head to its documentation for details.\n *\n * The account that deploys the contract will be granted pauser, minter and burner\n * roles, as well as the default admin role, which can be reallocated to a different address\n * \n */\ncontract OFINToken is ERC20, ERC20Capped, ERC20Pausable, ERC20Burnable, AccessControl {\n    \n    bytes32 public constant MINTER_ROLE = keccak256(\"MINTER_ROLE\");\n    bytes32 public constant BURNER_ROLE = keccak256(\"BURNER_ROLE\");\n    bytes32 public constant PAUSER_ROLE = keccak256(\"PAUSER_ROLE\");\n    using SafeMath for uint256;\n    \n    constructor() ERC20(\"OFIN TOKEN\", \"ON\") ERC20Capped(7777777*10**18) public {\n\n        _setupRole(DEFAULT_ADMIN_ROLE, _msgSender());\n        _setupRole(MINTER_ROLE, _msgSender());\n        _setupRole(BURNER_ROLE, _msgSender());\n        _setupRole(PAUSER_ROLE, _msgSender());\n\n    //    _mint(_msgSender(),1944447*10**18);\n    }\n    \n    function _beforeTokenTransfer(address from, address to, uint256 amount) internal virtual override(ERC20, ERC20Capped, ERC20Pausable) {\n\n        if( !(from == address(0) || to == address(0)) ) {\n            require(!paused(), \"ERC20Pausable: token transfer while paused\");\n            super._beforeTokenTransfer(from, to, amount);\n        } else {\n            ERC20Capped._beforeTokenTransfer(from, to, amount);\n        }\n\n    }\n    \n    /**\n     * @dev Creates `amount` new tokens for `to`.\n     *\n     * See {ERC20-_mint}.\n     *\n     * Requirements:\n     *\n     * - the caller must have the `MINTER_ROLE` and only admin can mint to self.\n     * - Supply should not exceed max allowed token supply\n     */\n    function mint(address to, uint256 amount) public virtual {\n\n        require(hasRole(MINTER_ROLE, _msgSender()), \"OFINToken: must have minter role to mint\");\n        \n        if (to == _msgSender()) {\n            require(hasRole(MINTER_ROLE, _msgSender()), \"OFINToken: must have minter role to mint to self\");\n        }\n        _mint(to, amount);\n    }\n\n    /**\n     * @dev Pauses all token transfers, minting and burning.\n     *\n     * See {ERC20Pausable} and {Pausable-_pause}.\n     *\n     * Requirements:\n     *\n     * - the caller must have the `PAUSER_ROLE`.\n     */\n    function pause() public {\n        require(hasRole(PAUSER_ROLE, _msgSender()), \"OFINToken: must have pauser role to pause\");\n        _pause();\n    }\n\n    /**\n     * @dev Unpauses all token transfers, minting and burning.\n     *\n     * See {ERC20Pausable} and {Pausable-_unpause}.\n     *\n     * Requirements:\n     *\n     * - the caller must have the `PAUSER_ROLE`.\n     */\n    function unpause() public {\n        require(hasRole(PAUSER_ROLE, _msgSender()), \"OFINToken: must have pauser role to unpause\");\n        _unpause();\n    }\n\n    /**\n     * @dev Override burnFrom for minter only.\n     *\n     *\n     * Requirements:\n     *\n     * - the caller must have the `BURNER_ROLE`.\n     */\n    function burnFrom(address account, uint256 amount) public virtual override {\n        require(hasRole(BURNER_ROLE, _msgSender()), \"OFINToken: must have burner role to burnFrom\");\n        super.burnFrom(account, amount);\n    }\n\n    /**\n     * @dev Grant minter role.\n     *\n     *\n     * Requirements:\n     *\n     * - the caller must have the admin role.\n     */\n    function grantMinterRole(address account) public {\n        require(hasRole(DEFAULT_ADMIN_ROLE, _msgSender()), \"OFINToken: sender must be an admin to grant\");\n        grantRole(MINTER_ROLE, account);\n    }\n\n    /**\n     * @dev Grant burner role.\n     *\n     *\n     * Requirements:\n     *\n     * - the caller must have the admin role.\n     */\n    function grantBurnerRole(address account) public {\n        require(hasRole(DEFAULT_ADMIN_ROLE, _msgSender()), \"OFINToken: sender must be an admin to grant\");\n        super.grantRole(BURNER_ROLE, account);\n    }\n\n    /**\n     * @dev Grant pauser role.\n     *\n     * Requirements:\n     *\n     * - the caller must have the admin role.\n     */\n    function grantPauserRole(address account) public {\n        require(hasRole(DEFAULT_ADMIN_ROLE, _msgSender()), \"OFINToken: sender must be an admin to grant\");\n        grantRole(PAUSER_ROLE, account);\n    }\n}",
  "sourcePath": "/home/sdc/proj/contracts/OFINToken.sol",
  "compiler": {
    "name": "solc",
    "version": "0.6.12+commit.27d51765.Emscripten.clang"
  },
  "schemaVersion": "3.2.3",
  "updatedAt": "2020-09-04T18:08:10.812Z",
  "networkType": "ethereum",
  "devdoc": {
    "details": "{ERC20} token, including:  - a pauser role that allows to stop all token transfers, minting and burning  - a minter role that allows for token minting (creation)  - ability for holders to burn (destroy) their tokens This contract uses {AccessControl} to lock permissioned functions using the different roles - head to its documentation for details. The account that deploys the contract will be granted pauser, minter and burner roles, as well as the default admin role, which can be reallocated to a different address ",
    "kind": "dev",
    "methods": {
      "allowance(address,address)": {
        "details": "See {IERC20-allowance}."
      },
      "approve(address,uint256)": {
        "details": "See {IERC20-approve}. Requirements: - `spender` cannot be the zero address."
      },
      "balanceOf(address)": {
        "details": "See {IERC20-balanceOf}."
      },
      "burn(uint256)": {
        "details": "Destroys `amount` tokens from the caller. See {ERC20-_burn}."
      },
      "burnFrom(address,uint256)": {
        "details": "Override burnFrom for minter only. Requirements: - the caller must have the `BURNER_ROLE`."
      },
      "cap()": {
        "details": "Returns the cap on the token's total supply."
      },
      "decimals()": {
        "details": "Returns the number of decimals used to get its user representation. For example, if `decimals` equals `2`, a balance of `505` tokens should be displayed to a user as `5,05` (`505 / 10 ** 2`). Tokens usually opt for a value of 18, imitating the relationship between Ether and Wei. This is the value {ERC20} uses, unless {_setupDecimals} is called. NOTE: This information is only used for _display_ purposes: it in no way affects any of the arithmetic of the contract, including {IERC20-balanceOf} and {IERC20-transfer}."
      },
      "decreaseAllowance(address,uint256)": {
        "details": "Atomically decreases the allowance granted to `spender` by the caller. This is an alternative to {approve} that can be used as a mitigation for problems described in {IERC20-approve}. Emits an {Approval} event indicating the updated allowance. Requirements: - `spender` cannot be the zero address. - `spender` must have allowance for the caller of at least `subtractedValue`."
      },
      "getRoleAdmin(bytes32)": {
        "details": "Returns the admin role that controls `role`. See {grantRole} and {revokeRole}. To change a role's admin, use {_setRoleAdmin}."
      },
      "getRoleMember(bytes32,uint256)": {
        "details": "Returns one of the accounts that have `role`. `index` must be a value between 0 and {getRoleMemberCount}, non-inclusive. Role bearers are not sorted in any particular way, and their ordering may change at any point. WARNING: When using {getRoleMember} and {getRoleMemberCount}, make sure you perform all queries on the same block. See the following https://forum.openzeppelin.com/t/iterating-over-elements-on-enumerableset-in-openzeppelin-contracts/2296[forum post] for more information."
      },
      "getRoleMemberCount(bytes32)": {
        "details": "Returns the number of accounts that have `role`. Can be used together with {getRoleMember} to enumerate all bearers of a role."
      },
      "grantBurnerRole(address)": {
        "details": "Grant burner role. Requirements: - the caller must have the admin role."
      },
      "grantMinterRole(address)": {
        "details": "Grant minter role. Requirements: - the caller must have the admin role."
      },
      "grantPauserRole(address)": {
        "details": "Grant pauser role. Requirements: - the caller must have the admin role."
      },
      "grantRole(bytes32,address)": {
        "details": "Grants `role` to `account`. If `account` had not been already granted `role`, emits a {RoleGranted} event. Requirements: - the caller must have ``role``'s admin role."
      },
      "hasRole(bytes32,address)": {
        "details": "Returns `true` if `account` has been granted `role`."
      },
      "increaseAllowance(address,uint256)": {
        "details": "Atomically increases the allowance granted to `spender` by the caller. This is an alternative to {approve} that can be used as a mitigation for problems described in {IERC20-approve}. Emits an {Approval} event indicating the updated allowance. Requirements: - `spender` cannot be the zero address."
      },
      "mint(address,uint256)": {
        "details": "Creates `amount` new tokens for `to`. See {ERC20-_mint}. Requirements: - the caller must have the `MINTER_ROLE` and only admin can mint to self. - Supply should not exceed max allowed token supply"
      },
      "name()": {
        "details": "Returns the name of the token."
      },
      "pause()": {
        "details": "Pauses all token transfers, minting and burning. See {ERC20Pausable} and {Pausable-_pause}. Requirements: - the caller must have the `PAUSER_ROLE`."
      },
      "paused()": {
        "details": "Returns true if the contract is paused, and false otherwise."
      },
      "renounceRole(bytes32,address)": {
        "details": "Revokes `role` from the calling account. Roles are often managed via {grantRole} and {revokeRole}: this function's purpose is to provide a mechanism for accounts to lose their privileges if they are compromised (such as when a trusted device is misplaced). If the calling account had been granted `role`, emits a {RoleRevoked} event. Requirements: - the caller must be `account`."
      },
      "revokeRole(bytes32,address)": {
        "details": "Revokes `role` from `account`. If `account` had been granted `role`, emits a {RoleRevoked} event. Requirements: - the caller must have ``role``'s admin role."
      },
      "symbol()": {
        "details": "Returns the symbol of the token, usually a shorter version of the name."
      },
      "totalSupply()": {
        "details": "See {IERC20-totalSupply}."
      },
      "transfer(address,uint256)": {
        "details": "See {IERC20-transfer}. Requirements: - `recipient` cannot be the zero address. - the caller must have a balance of at least `amount`."
      },
      "transferFrom(address,address,uint256)": {
        "details": "See {IERC20-transferFrom}. Emits an {Approval} event indicating the updated allowance. This is not required by the EIP. See the note at the beginning of {ERC20}; Requirements: - `sender` and `recipient` cannot be the zero address. - `sender` must have a balance of at least `amount`. - the caller must have allowance for ``sender``'s tokens of at least `amount`."
      },
      "unpause()": {
        "details": "Unpauses all token transfers, minting and burning. See {ERC20Pausable} and {Pausable-_unpause}. Requirements: - the caller must have the `PAUSER_ROLE`."
      }
    },
    "version": 1
  },
  "userdoc": {
    "kind": "user",
    "methods": {},
    "version": 1
  }
}