{
  "contractName": "OFINAllotment",
  "abi": [
    {
      "inputs": [
        {
          "internalType": "address",
          "name": "ofinToken",
          "type": "address"
        }
      ],
      "stateMutability": "nonpayable",
      "type": "constructor"
    },
    {
      "anonymous": false,
      "inputs": [
        {
          "indexed": true,
          "internalType": "address",
          "name": "vestingContract",
          "type": "address"
        },
        {
          "indexed": true,
          "internalType": "address",
          "name": "beneficiary",
          "type": "address"
        },
        {
          "indexed": true,
          "internalType": "uint256",
          "name": "newReleaseTime",
          "type": "uint256"
        }
      ],
      "name": "AllotmentVestTimeUpdated",
      "type": "event"
    },
    {
      "anonymous": false,
      "inputs": [
        {
          "indexed": true,
          "internalType": "bytes32",
          "name": "role",
          "type": "bytes32"
        },
        {
          "indexed": true,
          "internalType": "bytes32",
          "name": "previousAdminRole",
          "type": "bytes32"
        },
        {
          "indexed": true,
          "internalType": "bytes32",
          "name": "newAdminRole",
          "type": "bytes32"
        }
      ],
      "name": "RoleAdminChanged",
      "type": "event"
    },
    {
      "anonymous": false,
      "inputs": [
        {
          "indexed": true,
          "internalType": "bytes32",
          "name": "role",
          "type": "bytes32"
        },
        {
          "indexed": true,
          "internalType": "address",
          "name": "account",
          "type": "address"
        },
        {
          "indexed": true,
          "internalType": "address",
          "name": "sender",
          "type": "address"
        }
      ],
      "name": "RoleGranted",
      "type": "event"
    },
    {
      "anonymous": false,
      "inputs": [
        {
          "indexed": true,
          "internalType": "bytes32",
          "name": "role",
          "type": "bytes32"
        },
        {
          "indexed": true,
          "internalType": "address",
          "name": "account",
          "type": "address"
        },
        {
          "indexed": true,
          "internalType": "address",
          "name": "sender",
          "type": "address"
        }
      ],
      "name": "RoleRevoked",
      "type": "event"
    },
    {
      "anonymous": false,
      "inputs": [
        {
          "indexed": true,
          "internalType": "address",
          "name": "vestingContract",
          "type": "address"
        },
        {
          "indexed": true,
          "internalType": "address",
          "name": "beneficiary",
          "type": "address"
        },
        {
          "indexed": true,
          "internalType": "uint256",
          "name": "tokenCount",
          "type": "uint256"
        }
      ],
      "name": "TokenReleased",
      "type": "event"
    },
    {
      "anonymous": false,
      "inputs": [
        {
          "indexed": true,
          "internalType": "address",
          "name": "vestingContract",
          "type": "address"
        },
        {
          "indexed": true,
          "internalType": "address",
          "name": "beneficiary",
          "type": "address"
        },
        {
          "indexed": true,
          "internalType": "uint256",
          "name": "tokenCount",
          "type": "uint256"
        }
      ],
      "name": "TokenVested",
      "type": "event"
    },
    {
      "inputs": [],
      "name": "ALLOTER_ROLE",
      "outputs": [
        {
          "internalType": "bytes32",
          "name": "",
          "type": "bytes32"
        }
      ],
      "stateMutability": "view",
      "type": "function",
      "constant": true
    },
    {
      "inputs": [],
      "name": "DEFAULT_ADMIN_ROLE",
      "outputs": [
        {
          "internalType": "bytes32",
          "name": "",
          "type": "bytes32"
        }
      ],
      "stateMutability": "view",
      "type": "function",
      "constant": true
    },
    {
      "inputs": [
        {
          "internalType": "bytes32",
          "name": "role",
          "type": "bytes32"
        }
      ],
      "name": "getRoleAdmin",
      "outputs": [
        {
          "internalType": "bytes32",
          "name": "",
          "type": "bytes32"
        }
      ],
      "stateMutability": "view",
      "type": "function",
      "constant": true
    },
    {
      "inputs": [
        {
          "internalType": "bytes32",
          "name": "role",
          "type": "bytes32"
        },
        {
          "internalType": "uint256",
          "name": "index",
          "type": "uint256"
        }
      ],
      "name": "getRoleMember",
      "outputs": [
        {
          "internalType": "address",
          "name": "",
          "type": "address"
        }
      ],
      "stateMutability": "view",
      "type": "function",
      "constant": true
    },
    {
      "inputs": [
        {
          "internalType": "bytes32",
          "name": "role",
          "type": "bytes32"
        }
      ],
      "name": "getRoleMemberCount",
      "outputs": [
        {
          "internalType": "uint256",
          "name": "",
          "type": "uint256"
        }
      ],
      "stateMutability": "view",
      "type": "function",
      "constant": true
    },
    {
      "inputs": [
        {
          "internalType": "bytes32",
          "name": "role",
          "type": "bytes32"
        },
        {
          "internalType": "address",
          "name": "account",
          "type": "address"
        }
      ],
      "name": "grantRole",
      "outputs": [],
      "stateMutability": "nonpayable",
      "type": "function"
    },
    {
      "inputs": [
        {
          "internalType": "bytes32",
          "name": "role",
          "type": "bytes32"
        },
        {
          "internalType": "address",
          "name": "account",
          "type": "address"
        }
      ],
      "name": "hasRole",
      "outputs": [
        {
          "internalType": "bool",
          "name": "",
          "type": "bool"
        }
      ],
      "stateMutability": "view",
      "type": "function",
      "constant": true
    },
    {
      "inputs": [
        {
          "internalType": "bytes32",
          "name": "role",
          "type": "bytes32"
        },
        {
          "internalType": "address",
          "name": "account",
          "type": "address"
        }
      ],
      "name": "renounceRole",
      "outputs": [],
      "stateMutability": "nonpayable",
      "type": "function"
    },
    {
      "inputs": [
        {
          "internalType": "bytes32",
          "name": "role",
          "type": "bytes32"
        },
        {
          "internalType": "address",
          "name": "account",
          "type": "address"
        }
      ],
      "name": "revokeRole",
      "outputs": [],
      "stateMutability": "nonpayable",
      "type": "function"
    },
    {
      "inputs": [],
      "name": "getOFINTokenContract",
      "outputs": [
        {
          "internalType": "address",
          "name": "",
          "type": "address"
        }
      ],
      "stateMutability": "view",
      "type": "function",
      "constant": true
    },
    {
      "inputs": [
        {
          "internalType": "address",
          "name": "account",
          "type": "address"
        }
      ],
      "name": "grantAlloterRole",
      "outputs": [],
      "stateMutability": "nonpayable",
      "type": "function"
    },
    {
      "inputs": [
        {
          "internalType": "address",
          "name": "beneficiary",
          "type": "address"
        },
        {
          "internalType": "uint256",
          "name": "releaseTime",
          "type": "uint256"
        },
        {
          "internalType": "uint256",
          "name": "tokenCount",
          "type": "uint256"
        },
        {
          "internalType": "string",
          "name": "name",
          "type": "string"
        }
      ],
      "name": "allotTokens",
      "outputs": [],
      "stateMutability": "nonpayable",
      "type": "function"
    },
    {
      "inputs": [
        {
          "internalType": "address",
          "name": "beneficairy",
          "type": "address"
        },
        {
          "internalType": "string",
          "name": "name",
          "type": "string"
        },
        {
          "internalType": "uint256",
          "name": "newReleaseTime",
          "type": "uint256"
        }
      ],
      "name": "setNewReleaseTime",
      "outputs": [],
      "stateMutability": "nonpayable",
      "type": "function"
    },
    {
      "inputs": [
        {
          "internalType": "address",
          "name": "beneficairy",
          "type": "address"
        },
        {
          "internalType": "string",
          "name": "name",
          "type": "string"
        }
      ],
      "name": "releaseBeneficiaryAllotment",
      "outputs": [],
      "stateMutability": "nonpayable",
      "type": "function"
    },
    {
      "inputs": [
        {
          "internalType": "string",
          "name": "name",
          "type": "string"
        }
      ],
      "name": "releaseAllotment",
      "outputs": [],
      "stateMutability": "nonpayable",
      "type": "function"
    },
    {
      "inputs": [],
      "name": "getAllBeneficiaries",
      "outputs": [
        {
          "internalType": "address[]",
          "name": "",
          "type": "address[]"
        }
      ],
      "stateMutability": "view",
      "type": "function",
      "constant": true
    },
    {
      "inputs": [
        {
          "internalType": "address",
          "name": "beneficiary",
          "type": "address"
        }
      ],
      "name": "getBeneficiaryAllotments",
      "outputs": [
        {
          "components": [
            {
              "internalType": "address",
              "name": "_beneficiary",
              "type": "address"
            },
            {
              "internalType": "uint256",
              "name": "_releaseTime",
              "type": "uint256"
            },
            {
              "internalType": "uint256",
              "name": "_tokenCount",
              "type": "uint256"
            },
            {
              "internalType": "string",
              "name": "_name",
              "type": "string"
            }
          ],
          "internalType": "struct OFINAllotment.TokenTimelock[]",
          "name": "",
          "type": "tuple[]"
        }
      ],
      "stateMutability": "view",
      "type": "function",
      "constant": true
    },
    {
      "inputs": [],
      "name": "getAllotments",
      "outputs": [
        {
          "components": [
            {
              "internalType": "address",
              "name": "_beneficiary",
              "type": "address"
            },
            {
              "internalType": "uint256",
              "name": "_releaseTime",
              "type": "uint256"
            },
            {
              "internalType": "uint256",
              "name": "_tokenCount",
              "type": "uint256"
            },
            {
              "internalType": "string",
              "name": "_name",
              "type": "string"
            }
          ],
          "internalType": "struct OFINAllotment.TokenTimelock[]",
          "name": "",
          "type": "tuple[]"
        }
      ],
      "stateMutability": "view",
      "type": "function",
      "constant": true
    },
    {
      "inputs": [],
      "name": "getTotalBalance",
      "outputs": [
        {
          "internalType": "uint256",
          "name": "",
          "type": "uint256"
        }
      ],
      "stateMutability": "view",
      "type": "function",
      "constant": true
    }
  ],
  "bytecode": "0x60806040523480156200001157600080fd5b5060405162002070380380620020708339810160408190526200003491620001e5565b6001600160a01b038116620000665760405162461bcd60e51b81526004016200005d9062000215565b60405180910390fd5b6200007c600062000076620000d1565b620000d5565b620000ab7fe2de25695c4d68c00742af47943eb9bd24e4164baf0de10a40adbfabf2d9d5f062000076620000d1565b600180546001600160a01b0319166001600160a01b039290921691909117905562000259565b3390565b620000e18282620000e5565b5050565b6000828152602081815260409091206200010a91839062000ea46200015e821b17901c565b15620000e1576200011a620000d1565b6001600160a01b0316816001600160a01b0316837f2f8788117e7eff1d82e926ec794901d17c78024a50270940304540a733656f0d60405160405180910390a45050565b600062000175836001600160a01b0384166200017e565b90505b92915050565b60006200018c8383620001cd565b620001c45750815460018181018455600084815260208082209093018490558454848252828601909352604090209190915562000178565b50600062000178565b60009081526001919091016020526040902054151590565b600060208284031215620001f7578081fd5b81516001600160a01b03811681146200020e578182fd5b9392505050565b60208082526024908201527f4f46494e416c6c6f746d656e743a20746f6b656e206973207a65726f206164646040820152637265737360e01b606082015260800190565b611e0780620002696000396000f3fe608060405234801561001057600080fd5b50600436106101215760003560e01c80634dea2699116100ad578063a217fddf11610071578063a217fddf14610250578063bd26204f14610258578063ca15c8731461026b578063d547741f1461027e578063f0c8cede1461029157610121565b80634dea2699146101d55780635d1c0a8a146101e8578063736277ce146102085780639010d07c1461021057806391d148541461023057610121565b80632f14bae8116100f45780632f14bae81461017f5780632f2ff15d14610194578063331386c0146101a757806336568abe146101ba57806340e4f4eb146101cd57610121565b8063120c1e4d1461012657806312b583491461013b5780631b139bc514610159578063248a9ca31461016c575b600080fd5b6101396101343660046115a8565b610299565b005b6101436104dd565b60405161015091906118ce565b60405180910390f35b6101396101673660046114a1565b6106f1565b61014361017a366004611630565b61087f565b610187610894565b60405161015091906117e5565b6101396101a2366004611648565b6108f6565b6101396101b5366004611698565b61093e565b6101396101c8366004611648565b610985565b6101436109c7565b6101396101e33660046114fa565b6109d9565b6101fb6101f6366004611486565b610b52565b6040516101509190611832565b6101fb610c80565b61022361021e366004611677565b610dc2565b60405161015091906117b8565b61024361023e366004611648565b610de3565b60405161015091906118c3565b610143610dfb565b610139610266366004611486565b610e00565b610143610279366004611630565b610e44565b61013961028c366004611648565b610e5b565b610223610e95565b6102b3600080516020611db283398151915261023e610eb9565b6102d85760405162461bcd60e51b81526004016102cf90611d13565b60405180910390fd5b6001600160a01b0385166102fe5760405162461bcd60e51b81526004016102cf90611a04565b8061031b5760405162461bcd60e51b81526004016102cf90611aed565b610323611364565b6040518060800160405280876001600160a01b0316815260200186815260200185815260200184848080601f01602080910402602001604051908101604052809392919081815260200183838082843760009201919091525050509152506001546040516340c10f1960e01b81529192506001600160a01b0316906340c10f19906103b490309088906004016117cc565b600060405180830381600087803b1580156103ce57600080fd5b505af11580156103e2573d6000803e3d6000fd5b505060038054600181810183557fc2575a0e9e593c00f959f8c92f12db2869c3395a3b0502d05e2516446f71f85b90910180546001600160a01b03808d166001600160a01b03199283168117909355600092835260026020818152604080862080548089018255908752958290208b5160049097020180549690941695909416949094178255888401519482019490945590870151928101929092556060860151805187965092945061049a93850192910190611395565b50506040518591506001600160a01b0388169030907f83a699f2fda2c137aa4f84b56d51b608b27c8374db4b74444a2a7b6303e4a5ed90600090a4505050505050565b60006060600260006104ed610eb9565b6001600160a01b03166001600160a01b03168152602001908152602001600020805480602002602001604051908101604052809291908181526020016000905b82821015610618576000848152602090819020604080516080810182526004860290920180546001600160a01b03168352600180820154848601526002808301548585015260038301805485516101009482161594909402600019011691909104601f810187900487028301870190945283825293949193606086019391929091908301828280156106005780601f106105d557610100808354040283529160200191610600565b820191906000526020600020905b8154815290600101906020018083116105e357829003601f168201915b5050505050815250508152602001906001019061052d565b50506001549293506000926001600160a01b031691506370a08231905061063d610eb9565b6040518263ffffffff1660e01b815260040161065991906117b8565b60206040518083038186803b15801561067157600080fd5b505afa158015610685573d6000803e3d6000fd5b505050506040513d601f19601f820116820180604052508101906106a991906116d8565b905060005b82518110156106ea576106e18382815181106106c657fe5b60200260200101516040015183610ebd90919063ffffffff16565b506001016106ae565b5091505090565b61070b600080516020611db283398151915261023e610eb9565b6107275760405162461bcd60e51b81526004016102cf90611b88565b6001600160a01b03841661074d5760405162461bcd60e51b81526004016102cf90611b36565b8161076a5760405162461bcd60e51b81526004016102cf90611aed565b6001600160a01b0384166000908152600260205260408120905b815481101561087757600082828154811061079b57fe5b9060005260206000209060040201905085856040516020016107be929190611738565b60405160208183030381529060405280519060200120816003016040516020016107e89190611748565b60405160208183030381529060405280519060200120141561086e5780600101548410156108285760405162461bcd60e51b81526004016102cf90611be5565b60018101849055805460405185916001600160a01b03169030907f47d2531ffa4b827af15ee0fcd535723f1eff5ade7acc9a4347f2fba17cbf8fdf90600090a450610877565b50600101610784565b505050505050565b60009081526020819052604090206002015490565b606060038054806020026020016040519081016040528092919081815260200182805480156108ec57602002820191906000526020600020905b81546001600160a01b031681526001909101906020018083116108ce575b5050505050905090565b6000828152602081905260409020600201546109149061023e610eb9565b6109305760405162461bcd60e51b81526004016102cf9061197e565b61093a8282610ee2565b5050565b61093a610949610eb9565b83838080601f0160208091040260200160405190810160405280939291908181526020018383808284376000920191909152506109d992505050565b61098d610eb9565b6001600160a01b0316816001600160a01b0316146109bd5760405162461bcd60e51b81526004016102cf90611cc4565b61093a8282610f4b565b600080516020611db283398151915281565b6001600160a01b0382166109ff5760405162461bcd60e51b81526004016102cf90611b36565b8051610a1d5760405162461bcd60e51b81526004016102cf90611aed565b6001600160a01b0382166000908152600260205260408120905b8154811015610b4c576000828281548110610a4e57fe5b9060005260206000209060040201905083604051602001610a6f919061171c565b6040516020818303038152906040528051906020012081600301604051602001610a999190611748565b604051602081830303815290604052805190602001201415610b43578060010154421015610ad95760405162461bcd60e51b81526004016102cf906118ea565b6002810180548254600090925560015490916001600160a01b0390811691610b0391168284610fb4565b60405182906001600160a01b0383169030907fa5fa891a402945a5916b3b11763e3446525ced0e1d55a45cb3d3024f22ce448690600090a4505050610b4c565b50600101610a37565b50505050565b6001600160a01b0381166000908152600260209081526040808320805482518185028101850190935280835260609492939192909184015b82821015610c75576000848152602090819020604080516080810182526004860290920180546001600160a01b03168352600180820154848601526002808301548585015260038301805485516101009482161594909402600019011691909104601f81018790048702830187019094528382529394919360608601939192909190830182828015610c5d5780601f10610c3257610100808354040283529160200191610c5d565b820191906000526020600020905b815481529060010190602001808311610c4057829003601f168201915b50505050508152505081526020019060010190610b8a565b505050509050919050565b606060026000610c8e610eb9565b6001600160a01b03166001600160a01b03168152602001908152602001600020805480602002602001604051908101604052809291908181526020016000905b82821015610db9576000848152602090819020604080516080810182526004860290920180546001600160a01b03168352600180820154848601526002808301548585015260038301805485516101009482161594909402600019011691909104601f81018790048702830187019094528382529394919360608601939192909190830182828015610da15780601f10610d7657610100808354040283529160200191610da1565b820191906000526020600020905b815481529060010190602001808311610d8457829003601f168201915b50505050508152505081526020019060010190610cce565b50505050905090565b6000828152602081905260408120610dda908361100f565b90505b92915050565b6000828152602081905260408120610dda908361101b565b600081565b610e0d600061023e610eb9565b610e295760405162461bcd60e51b81526004016102cf90611a9e565b610e41600080516020611db2833981519152826108f6565b50565b6000818152602081905260408120610ddd90611030565b600082815260208190526040902060020154610e799061023e610eb9565b6109bd5760405162461bcd60e51b81526004016102cf90611a4e565b6001546001600160a01b031690565b6000610dda836001600160a01b03841661103b565b3390565b600082820183811015610dda5760405162461bcd60e51b81526004016102cf906119cd565b6000828152602081905260409020610efa9082610ea4565b1561093a57610f07610eb9565b6001600160a01b0316816001600160a01b0316837f2f8788117e7eff1d82e926ec794901d17c78024a50270940304540a733656f0d60405160405180910390a45050565b6000828152602081905260409020610f639082611085565b1561093a57610f70610eb9565b6001600160a01b0316816001600160a01b0316837ff6391f5c32d9c69d2a47ea670b442974b53935d1edc7fd64eb21e047a839171b60405160405180910390a45050565b61100a8363a9059cbb60e01b8484604051602401610fd39291906117cc565b60408051601f198184030181529190526020810180516001600160e01b03166001600160e01b03199093169290921790915261109a565b505050565b6000610dda8383611129565b6000610dda836001600160a01b03841661116e565b6000610ddd82611186565b6000611047838361116e565b61107d57508154600181810184556000848152602080822090930184905584548482528286019093526040902091909155610ddd565b506000610ddd565b6000610dda836001600160a01b03841661118a565b60606110ef826040518060400160405280602081526020017f5361666545524332303a206c6f772d6c6576656c2063616c6c206661696c6564815250856001600160a01b03166112509092919063ffffffff16565b80519091501561100a578080602001905181019061110d9190611610565b61100a5760405162461bcd60e51b81526004016102cf90611c7a565b8154600090821061114c5760405162461bcd60e51b81526004016102cf9061193c565b82600001828154811061115b57fe5b9060005260206000200154905092915050565b60009081526001919091016020526040902054151590565b5490565b6000818152600183016020526040812054801561124657835460001980830191908101906000908790839081106111bd57fe5b90600052602060002001549050808760000184815481106111da57fe5b60009182526020808320909101929092558281526001898101909252604090209084019055865487908061120a57fe5b60019003818190600052602060002001600090559055866001016000878152602001908152602001600020600090556001945050505050610ddd565b6000915050610ddd565b606061125f8484600085611267565b949350505050565b60606112728561132b565b61128e5760405162461bcd60e51b81526004016102cf90611c43565b60006060866001600160a01b031685876040516112ab919061171c565b60006040518083038185875af1925050503d80600081146112e8576040519150601f19603f3d011682016040523d82523d6000602084013e6112ed565b606091505b5091509150811561130157915061125f9050565b8051156113115780518082602001fd5b8360405162461bcd60e51b81526004016102cf91906118d7565b6000813f7fc5d2460186f7233c927e7db2dcc703c0e500b653ca82273b7bfad8045d85a47081811480159061125f575050151592915050565b604051806080016040528060006001600160a01b031681526020016000815260200160008152602001606081525090565b828054600181600116156101000203166002900490600052602060002090601f016020900481019282601f106113d657805160ff1916838001178555611403565b82800160010185558215611403579182015b828111156114035782518255916020019190600101906113e8565b5061140f929150611413565b5090565b5b8082111561140f5760008155600101611414565b80356001600160a01b0381168114610ddd57600080fd5b60008083601f840112611450578182fd5b50813567ffffffffffffffff811115611467578182fd5b60208301915083602082850101111561147f57600080fd5b9250929050565b600060208284031215611497578081fd5b610dda8383611428565b600080600080606085870312156114b6578283fd5b6114c08686611428565b9350602085013567ffffffffffffffff8111156114db578384fd5b6114e78782880161143f565b9598909750949560400135949350505050565b6000806040838503121561150c578182fd5b823561151781611d9c565b915060208381013567ffffffffffffffff80821115611534578384fd5b818601915086601f830112611547578384fd5b813581811115611555578485fd5b604051601f8201601f1916810185018381118282101715611574578687fd5b604052818152838201850189101561158a578586fd5b81858501868301378585838301015280955050505050509250929050565b6000806000806000608086880312156115bf578081fd5b85356115ca81611d9c565b94506020860135935060408601359250606086013567ffffffffffffffff8111156115f3578182fd5b6115ff8882890161143f565b969995985093965092949392505050565b600060208284031215611621578081fd5b81518015158114610dda578182fd5b600060208284031215611641578081fd5b5035919050565b6000806040838503121561165a578182fd5b82359150602083013561166c81611d9c565b809150509250929050565b60008060408385031215611689578182fd5b50508035926020909101359150565b600080602083850312156116aa578182fd5b823567ffffffffffffffff8111156116c0578283fd5b6116cc8582860161143f565b90969095509350505050565b6000602082840312156116e9578081fd5b5051919050565b60008151808452611708816020860160208601611d70565b601f01601f19169290920160200192915050565b6000825161172e818460208701611d70565b9190910192915050565b6000828483379101908152919050565b6000808354600180821660008114611767576001811461177e576117ad565b60ff198316865260028304607f16860193506117ad565b600283048786526020808720875b838110156117a55781548a82015290850190820161178c565b505050860193505b509195945050505050565b6001600160a01b0391909116815260200190565b6001600160a01b03929092168252602082015260400190565b6020808252825182820181905260009190848201906040850190845b818110156118265783516001600160a01b031683529284019291840191600101611801565b50909695505050505050565b60208082528251828201819052600091906040908185019080840286018301878501865b838110156118b557888303603f19018552815180516001600160a01b03168452878101518885015286810151878501526060908101516080918501829052906118a1818601836116f0565b968901969450505090860190600101611856565b509098975050505050505050565b901515815260200190565b90815260200190565b600060208252610dda60208301846116f0565b60208082526032908201527f546f6b656e54696d656c6f636b3a2063757272656e742074696d65206973206260408201527165666f72652072656c656173652074696d6560701b606082015260800190565b60208082526022908201527f456e756d657261626c655365743a20696e646578206f7574206f6620626f756e604082015261647360f01b606082015260800190565b6020808252602f908201527f416363657373436f6e74726f6c3a2073656e646572206d75737420626520616e60408201526e0818591b5a5b881d1bc819dc985b9d608a1b606082015260800190565b6020808252601b908201527f536166654d6174683a206164646974696f6e206f766572666c6f770000000000604082015260600190565b6020808252602a908201527f4f46494e416c6c6f746d656e743a2062656e6566696369617279206973207a65604082015269726f206164647265737360b01b606082015260800190565b60208082526030908201527f416363657373436f6e74726f6c3a2073656e646572206d75737420626520616e60408201526f2061646d696e20746f207265766f6b6560801b606082015260800190565b6020808252602f908201527f4f46494e416c6c6f746d656e743a2073656e646572206d75737420626520616e60408201526e0818591b5a5b881d1bc819dc985b9d608a1b606082015260800190565b60208082526029908201527f4f46494e416c6c6f746d656e743a206e616d65206c656e6774682063616e6e6f60408201526874206265207a65726f60b81b606082015260800190565b60208082526032908201527f4f46494e416c6c6f746d656e743a2062656e6669636169727920636f6e7472616040820152716374206973207a65726f206164647265737360701b606082015260800190565b6020808252603f908201527f4f46494e416c6c6f746d656e743a2073656e646572206d75737420626520616e60408201527f20616c6c6f74657220746f20657874656e642072656c656173652074696d6500606082015260800190565b602080825260409082018190527f546f6b656e54696d656c6f636b3a206e657752656c6561736554696d65207368908201527f6f756c642062652067726561746572207468616e206f6c6465722076616c7565606082015260800190565b6020808252601d908201527f416464726573733a2063616c6c20746f206e6f6e2d636f6e7472616374000000604082015260600190565b6020808252602a908201527f5361666545524332303a204552433230206f7065726174696f6e20646964206e6040820152691bdd081cdd58d8d9595960b21b606082015260800190565b6020808252602f908201527f416363657373436f6e74726f6c3a2063616e206f6e6c792072656e6f756e636560408201526e103937b632b9903337b91039b2b63360891b606082015260800190565b60208082526038908201527f4f46494e416c6c6f746d656e743a2073656e646572206d75737420626520616e60408201527f20616c6c6f74657220746f20616c6c6f7420746f6b656e730000000000000000606082015260800190565b60005b83811015611d8b578181015183820152602001611d73565b83811115610b4c5750506000910152565b6001600160a01b0381168114610e4157600080fdfee2de25695c4d68c00742af47943eb9bd24e4164baf0de10a40adbfabf2d9d5f0a264697066735822122042ab38af41bc47641d157ad328628faad83400735f85579e44524bb276716e2164736f6c634300060c0033",
  "immutableReferences": {},
  "source": "// SPDX-License-Identifier: Copyright@ofin.io\n/**\n * \n * \n * \n * URL: https://ofin.io/\n * Symbol: ON\n * \n */\n\n pragma solidity 0.6.12;\n pragma experimental ABIEncoderV2;\n\n//  import \"./TokenTimelock.sol\";\n import \"@openzeppelin/contracts/token/ERC20/SafeERC20.sol\";\n import \"@openzeppelin/contracts/math/SafeMath.sol\";\n import \"@openzeppelin/contracts/access/AccessControl.sol\";\n//  import \"./interfaces/IOFINToken.sol\";\nimport \"./OFINToken.sol\";\n\n/**\n* @dev This contract handles allotment of OFIN Token\n*/\n contract OFINAllotment is AccessControl {\n\n    struct TokenTimelock {\n        address _beneficiary;\n        uint256 _releaseTime;\n        uint256 _tokenCount;\n        string _name;\n    }\n    \n    using SafeERC20 for OFINToken;\n    // using SafeERC20 for IOFINToken;\n    using SafeMath for uint256;\n\n    // OFIN token Contract\n    // IOFINToken private _ofinToken;\n    OFINToken private _ofinToken;\n\n    bytes32 public constant ALLOTER_ROLE = keccak256(\"ALLOTER_ROLE\");\n    \n    mapping( address => TokenTimelock[] ) private beneficiaryAllotments;\n    address[] private beneficiaries;\n\n    event TokenVested(address indexed vestingContract, address indexed beneficiary, uint256 indexed tokenCount);\n    event TokenReleased(address indexed vestingContract, address indexed beneficiary, uint256 indexed tokenCount);\n    event AllotmentVestTimeUpdated(address indexed vestingContract, address indexed beneficiary, uint256 indexed newReleaseTime);\n\n    /**\n     * @dev Initialize the contract with OFIN token address\n     *\n     * @param ofinToken - OFIN Token address\n     * \n     */\n    constructor(address ofinToken) public {\n        require(ofinToken != address(0), \"OFINAllotment: token is zero address\");\n\n        _setupRole(DEFAULT_ADMIN_ROLE, _msgSender());\n        _setupRole(ALLOTER_ROLE, _msgSender());\n\n        // Set OFIN ERC20 token Contract\n        // _ofinToken = IOFINToken(ofinToken);\n        _ofinToken = OFINToken(ofinToken);\n    }\n\n    /**\n    * @dev Get OFIN token contract address.\n    *\n    * @return account - Address of OFIN Token contract\n    */\n    function getOFINTokenContract() public view returns (address) {\n        return address(_ofinToken);\n    }\n\n    /**\n    * @dev Grant alloter role.\n    * @param account - Address of the alloter to be granted the role\n    * Requirements:\n    *\n    * - the caller must have the admin role.\n    */\n    function grantAlloterRole(address account) public {\n        require(hasRole(DEFAULT_ADMIN_ROLE, _msgSender()), \"OFINAllotment: sender must be an admin to grant\");\n        super.grantRole(ALLOTER_ROLE, account);\n    }\n\n    /**\n    * @dev create allotments and freeze tokens\n    * @param beneficiary - Address of the beneficiary\n    * @param releaseTime - time in the future till when it is locked\n    * Requirements:\n    *\n    * - the caller must have the alloter role. \n    */\n    function allotTokens(address beneficiary, uint256 releaseTime, uint256 tokenCount, string calldata name) external {\n        \n        require(hasRole(ALLOTER_ROLE, _msgSender()), \"OFINAllotment: sender must be an alloter to allot tokens\");\n        require(beneficiary != address(0), \"OFINAllotment: beneficiary is zero address\");\n        require(bytes(name).length != 0,\"OFINAllotment: name length cannot be zero\");\n\n        TokenTimelock memory allotment = TokenTimelock({ _beneficiary: beneficiary, _releaseTime: releaseTime,_tokenCount: tokenCount, _name: name});\n\n        _ofinToken.mint(address(this), tokenCount);\n\n        beneficiaries.push(beneficiary);\n        \n        beneficiaryAllotments[beneficiary].push( allotment);\n\n        emit TokenVested(address(this), beneficiary, tokenCount);\n    }\n\n    /**\n    * @dev sets the release time\n    * @param beneficairy - Address of the TokenTimeLock\n    * @param newReleaseTime - time in the future till when it is locked\n    * Requirements:\n    *\n    * - the caller must have the alloter role. \n    */\n    function setNewReleaseTime( address beneficairy, string calldata name, uint256 newReleaseTime) external {\n        \n        require(hasRole(ALLOTER_ROLE, _msgSender()), \"OFINAllotment: sender must be an alloter to extend release time\");\n        require(beneficairy != address(0), \"OFINAllotment: benficairy contract is zero address\");\n        require(bytes(name).length != 0,\"OFINAllotment: name length cannot be zero\");\n\n        TokenTimelock[] storage myAllotments = beneficiaryAllotments[beneficairy];\n        for(uint i =0; i< myAllotments.length; i++ ){\n            TokenTimelock storage allotment = myAllotments[i];\n            if(keccak256(abi.encodePacked(allotment._name)) == keccak256(abi.encodePacked(name))){\n                require(newReleaseTime >= allotment._releaseTime, \"TokenTimelock: newReleaseTime should be greater than older value\");\n                allotment._releaseTime = newReleaseTime;\n\n                emit AllotmentVestTimeUpdated( address(this), allotment._beneficiary, allotment._releaseTime );\n                break;                \n            }\n        }\n    }\n\n    /**\n    * @dev releases the specified allotment if applicable\n    * @param beneficairy - Address of the TokenTimeLock\n    * @param name - allotment name\n    */\n    function releaseBeneficiaryAllotment(address beneficairy, string memory name ) public {\n        require(beneficairy != address(0), \"OFINAllotment: benficairy contract is zero address\");\n        require(bytes(name).length != 0,\"OFINAllotment: name length cannot be zero\");\n\n        TokenTimelock[] storage myAllotments = beneficiaryAllotments[beneficairy];\n        for(uint i =0; i< myAllotments.length; i++ ){\n            TokenTimelock storage allotment = myAllotments[i];\n            if(keccak256(abi.encodePacked(allotment._name)) == keccak256(abi.encodePacked(name))){\n\n                require(block.timestamp >= allotment._releaseTime, \"TokenTimelock: current time is before release time\");\n                uint256 amount = allotment._tokenCount;\n                address beneficiary = allotment._beneficiary;\n                allotment._tokenCount = 0;\n\n                _ofinToken.safeTransfer(beneficiary, amount);\n                emit TokenReleased(address(this), beneficiary, amount );\n\n                break;                \n            }\n        }\n\n    }\n\n    /**\n    * @dev releases the specified allotment if applicable for the sender\n    * @param name - allotment name\n    */\n    function releaseAllotment(string calldata name ) external {\n        releaseBeneficiaryAllotment(_msgSender(), name);\n    }\n\n    /**\n    * @dev gets all the beneficiary address\n    */\n    function getAllBeneficiaries() external view returns (address[] memory ){\n        return beneficiaries;\n    }\n\n    /**\n    * @dev gets all benefeciary allotments\n    */\n    function getBeneficiaryAllotments(address beneficiary) external view returns (TokenTimelock[] memory ){\n        return beneficiaryAllotments[beneficiary];\n    }\n\n    /**\n    * @dev gets all senders allotments\n    */\n    function getAllotments() external view returns (TokenTimelock[] memory ){\n        return beneficiaryAllotments[_msgSender()];\n    }\n\n    /**\n    * @dev gets sender's total balance (released + locked)\n    */\n    function getTotalBalance() external view returns (uint256 ){\n        TokenTimelock[] memory myAllotments = beneficiaryAllotments[_msgSender()];\n        uint256 balance = _ofinToken.balanceOf(_msgSender());\n\n        for(uint i =0; i< myAllotments.length; i++ ){\n            balance.add(myAllotments[i]._tokenCount);\n        }\n\n        return balance;\n    }\n}",
  "sourcePath": "/home/sdc/proj/contracts/OFINAllotment.sol",
  "compiler": {
    "name": "solc",
    "version": "0.6.12+commit.27d51765.Emscripten.clang"
  },
  "schemaVersion": "3.2.3",
  "updatedAt": "2020-09-04T18:08:10.792Z",
  "networkType": "ethereum",
  "devdoc": {
    "details": "This contract handles allotment of OFIN Token",
    "kind": "dev",
    "methods": {
      "allotTokens(address,uint256,uint256,string)": {
        "details": "create allotments and freeze tokens",
        "params": {
          "beneficiary": "- Address of the beneficiary",
          "releaseTime": "- time in the future till when it is locked Requirements: - the caller must have the alloter role. "
        }
      },
      "constructor": {
        "details": "Initialize the contract with OFIN token address",
        "params": {
          "ofinToken": "- OFIN Token address "
        }
      },
      "getAllBeneficiaries()": {
        "details": "gets all the beneficiary address"
      },
      "getAllotments()": {
        "details": "gets all senders allotments"
      },
      "getBeneficiaryAllotments(address)": {
        "details": "gets all benefeciary allotments"
      },
      "getOFINTokenContract()": {
        "details": "Get OFIN token contract address.",
        "returns": {
          "_0": "account - Address of OFIN Token contract"
        }
      },
      "getRoleAdmin(bytes32)": {
        "details": "Returns the admin role that controls `role`. See {grantRole} and {revokeRole}. To change a role's admin, use {_setRoleAdmin}."
      },
      "getRoleMember(bytes32,uint256)": {
        "details": "Returns one of the accounts that have `role`. `index` must be a value between 0 and {getRoleMemberCount}, non-inclusive. Role bearers are not sorted in any particular way, and their ordering may change at any point. WARNING: When using {getRoleMember} and {getRoleMemberCount}, make sure you perform all queries on the same block. See the following https://forum.openzeppelin.com/t/iterating-over-elements-on-enumerableset-in-openzeppelin-contracts/2296[forum post] for more information."
      },
      "getRoleMemberCount(bytes32)": {
        "details": "Returns the number of accounts that have `role`. Can be used together with {getRoleMember} to enumerate all bearers of a role."
      },
      "getTotalBalance()": {
        "details": "gets sender's total balance (released + locked)"
      },
      "grantAlloterRole(address)": {
        "details": "Grant alloter role.",
        "params": {
          "account": "- Address of the alloter to be granted the role Requirements: - the caller must have the admin role."
        }
      },
      "grantRole(bytes32,address)": {
        "details": "Grants `role` to `account`. If `account` had not been already granted `role`, emits a {RoleGranted} event. Requirements: - the caller must have ``role``'s admin role."
      },
      "hasRole(bytes32,address)": {
        "details": "Returns `true` if `account` has been granted `role`."
      },
      "releaseAllotment(string)": {
        "details": "releases the specified allotment if applicable for the sender",
        "params": {
          "name": "- allotment name"
        }
      },
      "releaseBeneficiaryAllotment(address,string)": {
        "details": "releases the specified allotment if applicable",
        "params": {
          "beneficairy": "- Address of the TokenTimeLock",
          "name": "- allotment name"
        }
      },
      "renounceRole(bytes32,address)": {
        "details": "Revokes `role` from the calling account. Roles are often managed via {grantRole} and {revokeRole}: this function's purpose is to provide a mechanism for accounts to lose their privileges if they are compromised (such as when a trusted device is misplaced). If the calling account had been granted `role`, emits a {RoleRevoked} event. Requirements: - the caller must be `account`."
      },
      "revokeRole(bytes32,address)": {
        "details": "Revokes `role` from `account`. If `account` had been granted `role`, emits a {RoleRevoked} event. Requirements: - the caller must have ``role``'s admin role."
      },
      "setNewReleaseTime(address,string,uint256)": {
        "details": "sets the release time",
        "params": {
          "beneficairy": "- Address of the TokenTimeLock",
          "newReleaseTime": "- time in the future till when it is locked Requirements: - the caller must have the alloter role. "
        }
      }
    },
    "version": 1
  },
  "userdoc": {
    "kind": "user",
    "methods": {},
    "version": 1
  }
}